{
  "_format": "hh-sol-artifact-1",
  "contractName": "ApartmentNFT",
  "sourceName": "contracts/ApartmentNFT.sol",
  "abi": [
    {
      "inputs": [
        {
          "internalType": "address",
          "name": "registryAddress",
          "type": "address"
        }
      ],
      "stateMutability": "nonpayable",
      "type": "constructor"
    },
    {
      "inputs": [
        {
          "internalType": "address",
          "name": "sender",
          "type": "address"
        },
        {
          "internalType": "uint256",
          "name": "tokenId",
          "type": "uint256"
        },
        {
          "internalType": "address",
          "name": "owner",
          "type": "address"
        }
      ],
      "name": "ERC721IncorrectOwner",
      "type": "error"
    },
    {
      "inputs": [
        {
          "internalType": "address",
          "name": "operator",
          "type": "address"
        },
        {
          "internalType": "uint256",
          "name": "tokenId",
          "type": "uint256"
        }
      ],
      "name": "ERC721InsufficientApproval",
      "type": "error"
    },
    {
      "inputs": [
        {
          "internalType": "address",
          "name": "approver",
          "type": "address"
        }
      ],
      "name": "ERC721InvalidApprover",
      "type": "error"
    },
    {
      "inputs": [
        {
          "internalType": "address",
          "name": "operator",
          "type": "address"
        }
      ],
      "name": "ERC721InvalidOperator",
      "type": "error"
    },
    {
      "inputs": [
        {
          "internalType": "address",
          "name": "owner",
          "type": "address"
        }
      ],
      "name": "ERC721InvalidOwner",
      "type": "error"
    },
    {
      "inputs": [
        {
          "internalType": "address",
          "name": "receiver",
          "type": "address"
        }
      ],
      "name": "ERC721InvalidReceiver",
      "type": "error"
    },
    {
      "inputs": [
        {
          "internalType": "address",
          "name": "sender",
          "type": "address"
        }
      ],
      "name": "ERC721InvalidSender",
      "type": "error"
    },
    {
      "inputs": [
        {
          "internalType": "uint256",
          "name": "tokenId",
          "type": "uint256"
        }
      ],
      "name": "ERC721NonexistentToken",
      "type": "error"
    },
    {
      "inputs": [
        {
          "internalType": "address",
          "name": "owner",
          "type": "address"
        }
      ],
      "name": "OwnableInvalidOwner",
      "type": "error"
    },
    {
      "inputs": [
        {
          "internalType": "address",
          "name": "account",
          "type": "address"
        }
      ],
      "name": "OwnableUnauthorizedAccount",
      "type": "error"
    },
    {
      "anonymous": false,
      "inputs": [
        {
          "indexed": true,
          "internalType": "address",
          "name": "owner",
          "type": "address"
        },
        {
          "indexed": true,
          "internalType": "address",
          "name": "approved",
          "type": "address"
        },
        {
          "indexed": true,
          "internalType": "uint256",
          "name": "tokenId",
          "type": "uint256"
        }
      ],
      "name": "Approval",
      "type": "event"
    },
    {
      "anonymous": false,
      "inputs": [
        {
          "indexed": true,
          "internalType": "address",
          "name": "owner",
          "type": "address"
        },
        {
          "indexed": true,
          "internalType": "address",
          "name": "operator",
          "type": "address"
        },
        {
          "indexed": false,
          "internalType": "bool",
          "name": "approved",
          "type": "bool"
        }
      ],
      "name": "ApprovalForAll",
      "type": "event"
    },
    {
      "anonymous": false,
      "inputs": [
        {
          "indexed": false,
          "internalType": "uint256",
          "name": "_fromTokenId",
          "type": "uint256"
        },
        {
          "indexed": false,
          "internalType": "uint256",
          "name": "_toTokenId",
          "type": "uint256"
        }
      ],
      "name": "BatchMetadataUpdate",
      "type": "event"
    },
    {
      "anonymous": false,
      "inputs": [
        {
          "indexed": false,
          "internalType": "uint256",
          "name": "_tokenId",
          "type": "uint256"
        }
      ],
      "name": "MetadataUpdate",
      "type": "event"
    },
    {
      "anonymous": false,
      "inputs": [
        {
          "indexed": true,
          "internalType": "address",
          "name": "previousOwner",
          "type": "address"
        },
        {
          "indexed": true,
          "internalType": "address",
          "name": "newOwner",
          "type": "address"
        }
      ],
      "name": "OwnershipTransferred",
      "type": "event"
    },
    {
      "anonymous": false,
      "inputs": [
        {
          "indexed": true,
          "internalType": "address",
          "name": "from",
          "type": "address"
        },
        {
          "indexed": true,
          "internalType": "address",
          "name": "to",
          "type": "address"
        },
        {
          "indexed": true,
          "internalType": "uint256",
          "name": "tokenId",
          "type": "uint256"
        }
      ],
      "name": "Transfer",
      "type": "event"
    },
    {
      "inputs": [],
      "name": "apartmentCounter",
      "outputs": [
        {
          "internalType": "uint256",
          "name": "",
          "type": "uint256"
        }
      ],
      "stateMutability": "view",
      "type": "function"
    },
    {
      "inputs": [
        {
          "internalType": "uint256",
          "name": "",
          "type": "uint256"
        }
      ],
      "name": "apartments",
      "outputs": [
        {
          "internalType": "uint256",
          "name": "id",
          "type": "uint256"
        },
        {
          "internalType": "uint256",
          "name": "buildingId",
          "type": "uint256"
        },
        {
          "internalType": "uint256",
          "name": "sizeInSqM",
          "type": "uint256"
        },
        {
          "internalType": "uint256",
          "name": "pricePerSqM",
          "type": "uint256"
        }
      ],
      "stateMutability": "view",
      "type": "function"
    },
    {
      "inputs": [
        {
          "internalType": "address",
          "name": "to",
          "type": "address"
        },
        {
          "internalType": "uint256",
          "name": "tokenId",
          "type": "uint256"
        }
      ],
      "name": "approve",
      "outputs": [],
      "stateMutability": "nonpayable",
      "type": "function"
    },
    {
      "inputs": [
        {
          "internalType": "address",
          "name": "owner",
          "type": "address"
        }
      ],
      "name": "balanceOf",
      "outputs": [
        {
          "internalType": "uint256",
          "name": "",
          "type": "uint256"
        }
      ],
      "stateMutability": "view",
      "type": "function"
    },
    {
      "inputs": [],
      "name": "buildingRegistry",
      "outputs": [
        {
          "internalType": "contract IBuildingRegistry",
          "name": "",
          "type": "address"
        }
      ],
      "stateMutability": "view",
      "type": "function"
    },
    {
      "inputs": [
        {
          "internalType": "uint256",
          "name": "tokenId",
          "type": "uint256"
        }
      ],
      "name": "getApproved",
      "outputs": [
        {
          "internalType": "address",
          "name": "",
          "type": "address"
        }
      ],
      "stateMutability": "view",
      "type": "function"
    },
    {
      "inputs": [
        {
          "internalType": "uint256",
          "name": "tokenId",
          "type": "uint256"
        }
      ],
      "name": "getFullPrice",
      "outputs": [
        {
          "internalType": "uint256",
          "name": "",
          "type": "uint256"
        }
      ],
      "stateMutability": "view",
      "type": "function"
    },
    {
      "inputs": [
        {
          "internalType": "address",
          "name": "owner",
          "type": "address"
        },
        {
          "internalType": "address",
          "name": "operator",
          "type": "address"
        }
      ],
      "name": "isApprovedForAll",
      "outputs": [
        {
          "internalType": "bool",
          "name": "",
          "type": "bool"
        }
      ],
      "stateMutability": "view",
      "type": "function"
    },
    {
      "inputs": [
        {
          "internalType": "uint256",
          "name": "buildingId",
          "type": "uint256"
        },
        {
          "internalType": "uint256",
          "name": "sizeInSqM",
          "type": "uint256"
        },
        {
          "internalType": "uint256",
          "name": "pricePerSqM",
          "type": "uint256"
        },
        {
          "internalType": "string",
          "name": "tokenURI",
          "type": "string"
        }
      ],
      "name": "mintApartment",
      "outputs": [],
      "stateMutability": "nonpayable",
      "type": "function"
    },
    {
      "inputs": [],
      "name": "name",
      "outputs": [
        {
          "internalType": "string",
          "name": "",
          "type": "string"
        }
      ],
      "stateMutability": "view",
      "type": "function"
    },
    {
      "inputs": [],
      "name": "owner",
      "outputs": [
        {
          "internalType": "address",
          "name": "",
          "type": "address"
        }
      ],
      "stateMutability": "view",
      "type": "function"
    },
    {
      "inputs": [
        {
          "internalType": "uint256",
          "name": "tokenId",
          "type": "uint256"
        }
      ],
      "name": "ownerOf",
      "outputs": [
        {
          "internalType": "address",
          "name": "",
          "type": "address"
        }
      ],
      "stateMutability": "view",
      "type": "function"
    },
    {
      "inputs": [],
      "name": "renounceOwnership",
      "outputs": [],
      "stateMutability": "nonpayable",
      "type": "function"
    },
    {
      "inputs": [
        {
          "internalType": "address",
          "name": "from",
          "type": "address"
        },
        {
          "internalType": "address",
          "name": "to",
          "type": "address"
        },
        {
          "internalType": "uint256",
          "name": "tokenId",
          "type": "uint256"
        }
      ],
      "name": "safeTransferFrom",
      "outputs": [],
      "stateMutability": "nonpayable",
      "type": "function"
    },
    {
      "inputs": [
        {
          "internalType": "address",
          "name": "from",
          "type": "address"
        },
        {
          "internalType": "address",
          "name": "to",
          "type": "address"
        },
        {
          "internalType": "uint256",
          "name": "tokenId",
          "type": "uint256"
        },
        {
          "internalType": "bytes",
          "name": "data",
          "type": "bytes"
        }
      ],
      "name": "safeTransferFrom",
      "outputs": [],
      "stateMutability": "nonpayable",
      "type": "function"
    },
    {
      "inputs": [
        {
          "internalType": "address",
          "name": "operator",
          "type": "address"
        },
        {
          "internalType": "bool",
          "name": "approved",
          "type": "bool"
        }
      ],
      "name": "setApprovalForAll",
      "outputs": [],
      "stateMutability": "nonpayable",
      "type": "function"
    },
    {
      "inputs": [
        {
          "internalType": "bytes4",
          "name": "interfaceId",
          "type": "bytes4"
        }
      ],
      "name": "supportsInterface",
      "outputs": [
        {
          "internalType": "bool",
          "name": "",
          "type": "bool"
        }
      ],
      "stateMutability": "view",
      "type": "function"
    },
    {
      "inputs": [],
      "name": "symbol",
      "outputs": [
        {
          "internalType": "string",
          "name": "",
          "type": "string"
        }
      ],
      "stateMutability": "view",
      "type": "function"
    },
    {
      "inputs": [
        {
          "internalType": "uint256",
          "name": "tokenId",
          "type": "uint256"
        }
      ],
      "name": "tokenURI",
      "outputs": [
        {
          "internalType": "string",
          "name": "",
          "type": "string"
        }
      ],
      "stateMutability": "view",
      "type": "function"
    },
    {
      "inputs": [
        {
          "internalType": "address",
          "name": "from",
          "type": "address"
        },
        {
          "internalType": "address",
          "name": "to",
          "type": "address"
        },
        {
          "internalType": "uint256",
          "name": "tokenId",
          "type": "uint256"
        }
      ],
      "name": "transferFrom",
      "outputs": [],
      "stateMutability": "nonpayable",
      "type": "function"
    },
    {
      "inputs": [
        {
          "internalType": "address",
          "name": "newOwner",
          "type": "address"
        }
      ],
      "name": "transferOwnership",
      "outputs": [],
      "stateMutability": "nonpayable",
      "type": "function"
    }
  ],
  "bytecode": "0x608060405234801561001057600080fd5b5060405161311a38038061311a833981810160405281019061003291906102b3565b336040518060400160405280600c81526020017f41706172746d656e744e465400000000000000000000000000000000000000008152506040518060400160405280600381526020017f415054000000000000000000000000000000000000000000000000000000000081525081600090816100ae9190610530565b5080600190816100be9190610530565b505050600073ffffffffffffffffffffffffffffffffffffffff168173ffffffffffffffffffffffffffffffffffffffff16036101335760006040517f1e4fbdf700000000000000000000000000000000000000000000000000000000815260040161012a9190610611565b60405180910390fd5b6101428161018a60201b60201c565b5080600a60006101000a81548173ffffffffffffffffffffffffffffffffffffffff021916908373ffffffffffffffffffffffffffffffffffffffff1602179055505061062c565b6000600760009054906101000a900473ffffffffffffffffffffffffffffffffffffffff16905081600760006101000a81548173ffffffffffffffffffffffffffffffffffffffff021916908373ffffffffffffffffffffffffffffffffffffffff1602179055508173ffffffffffffffffffffffffffffffffffffffff168173ffffffffffffffffffffffffffffffffffffffff167f8be0079c531659141344cd1fd0a4f28419497f9722a3daafe3b4186f6b6457e060405160405180910390a35050565b600080fd5b600073ffffffffffffffffffffffffffffffffffffffff82169050919050565b600061028082610255565b9050919050565b61029081610275565b811461029b57600080fd5b50565b6000815190506102ad81610287565b92915050565b6000602082840312156102c9576102c8610250565b5b60006102d78482850161029e565b91505092915050565b600081519050919050565b7f4e487b7100000000000000000000000000000000000000000000000000000000600052604160045260246000fd5b7f4e487b7100000000000000000000000000000000000000000000000000000000600052602260045260246000fd5b6000600282049050600182168061036157607f821691505b6020821081036103745761037361031a565b5b50919050565b60008190508160005260206000209050919050565b60006020601f8301049050919050565b600082821b905092915050565b6000600883026103dc7fffffffffffffffffffffffffffffffffffffffffffffffffffffffffffffffff8261039f565b6103e6868361039f565b95508019841693508086168417925050509392505050565b6000819050919050565b6000819050919050565b600061042d610428610423846103fe565b610408565b6103fe565b9050919050565b6000819050919050565b61044783610412565b61045b61045382610434565b8484546103ac565b825550505050565b600090565b610470610463565b61047b81848461043e565b505050565b5b8181101561049f57610494600082610468565b600181019050610481565b5050565b601f8211156104e4576104b58161037a565b6104be8461038f565b810160208510156104cd578190505b6104e16104d98561038f565b830182610480565b50505b505050565b600082821c905092915050565b6000610507600019846008026104e9565b1980831691505092915050565b600061052083836104f6565b9150826002028217905092915050565b610539826102e0565b67ffffffffffffffff811115610552576105516102eb565b5b61055c8254610349565b6105678282856104a3565b600060209050601f83116001811461059a5760008415610588578287015190505b6105928582610514565b8655506105fa565b601f1984166105a88661037a565b60005b828110156105d0578489015182556001820191506020850194506020810190506105ab565b868310156105ed57848901516105e9601f8916826104f6565b8355505b6001600288020188555050505b505050505050565b61060b81610275565b82525050565b60006020820190506106266000830184610602565b92915050565b612adf8061063b6000396000f3fe608060405234801561001057600080fd5b50600436106101375760003560e01c806370a08231116100b8578063a22cb4651161007c578063a22cb4651461033c578063abb8be1714610358578063b88d4fde1461038b578063c87b56dd146103a7578063e985e9c5146103d7578063f2fde38b1461040757610137565b806370a08231146102aa578063715018a6146102da5780637fdb37a5146102e45780638da5cb5b1461030057806395d89b411461031e57610137565b80632fdf6d49116100ff5780632fdf6d49146101f2578063397e5eae1461021057806342842e0e146102405780635ee763e01461025c5780636352211e1461027a57610137565b806301ffc9a71461013c57806306fdde031461016c578063081812fc1461018a578063095ea7b3146101ba57806323b872dd146101d6575b600080fd5b61015660048036038101906101519190611d42565b610423565b6040516101639190611d8a565b60405180910390f35b610174610484565b6040516101819190611e35565b60405180910390f35b6101a4600480360381019061019f9190611e8d565b610516565b6040516101b19190611efb565b60405180910390f35b6101d460048036038101906101cf9190611f42565b610532565b005b6101f060048036038101906101eb9190611f82565b610548565b005b6101fa61064a565b6040516102079190612034565b60405180910390f35b61022a60048036038101906102259190611e8d565b610670565b604051610237919061205e565b60405180910390f35b61025a60048036038101906102559190611f82565b6106d7565b005b6102646106f7565b604051610271919061205e565b60405180910390f35b610294600480360381019061028f9190611e8d565b6106fd565b6040516102a19190611efb565b60405180910390f35b6102c460048036038101906102bf9190612079565b61070f565b6040516102d1919061205e565b60405180910390f35b6102e26107c9565b005b6102fe60048036038101906102f991906121db565b6107dd565b005b610308610953565b6040516103159190611efb565b60405180910390f35b61032661097d565b6040516103339190611e35565b60405180910390f35b6103566004803603810190610351919061228a565b610a0f565b005b610372600480360381019061036d9190611e8d565b610a25565b60405161038294939291906122ca565b60405180910390f35b6103a560048036038101906103a091906123b0565b610a55565b005b6103c160048036038101906103bc9190611e8d565b610a7a565b6040516103ce9190611e35565b60405180910390f35b6103f160048036038101906103ec9190612433565b610b8d565b6040516103fe9190611d8a565b60405180910390f35b610421600480360381019061041c9190612079565b610c21565b005b6000634906490660e01b7bffffffffffffffffffffffffffffffffffffffffffffffffffffffff1916827bffffffffffffffffffffffffffffffffffffffffffffffffffffffff1916148061047d575061047c82610ca7565b5b9050919050565b606060008054610493906124a2565b80601f01602080910402602001604051908101604052809291908181526020018280546104bf906124a2565b801561050c5780601f106104e15761010080835404028352916020019161050c565b820191906000526020600020905b8154815290600101906020018083116104ef57829003601f168201915b5050505050905090565b600061052182610d89565b5061052b82610e11565b9050919050565b610544828261053f610e4e565b610e56565b5050565b600073ffffffffffffffffffffffffffffffffffffffff168273ffffffffffffffffffffffffffffffffffffffff16036105ba5760006040517f64a0ae920000000000000000000000000000000000000000000000000000000081526004016105b19190611efb565b60405180910390fd5b60006105ce83836105c9610e4e565b610e68565b90508373ffffffffffffffffffffffffffffffffffffffff168173ffffffffffffffffffffffffffffffffffffffff1614610644578382826040517f64283d7b00000000000000000000000000000000000000000000000000000000815260040161063b939291906124d3565b60405180910390fd5b50505050565b600a60009054906101000a900473ffffffffffffffffffffffffffffffffffffffff1681565b600080600960008481526020019081526020016000206040518060800160405290816000820154815260200160018201548152602001600282015481526020016003820154815250509050806060015181604001516106cf9190612539565b915050919050565b6106f283838360405180602001604052806000815250610a55565b505050565b60085481565b600061070882610d89565b9050919050565b60008073ffffffffffffffffffffffffffffffffffffffff168273ffffffffffffffffffffffffffffffffffffffff16036107825760006040517f89c62b640000000000000000000000000000000000000000000000000000000081526004016107799190611efb565b60405180910390fd5b600360008373ffffffffffffffffffffffffffffffffffffffff1673ffffffffffffffffffffffffffffffffffffffff168152602001908152602001600020549050919050565b6107d1611082565b6107db6000611109565b565b600a60009054906101000a900473ffffffffffffffffffffffffffffffffffffffff1673ffffffffffffffffffffffffffffffffffffffff16635a5d096c85336040518363ffffffff1660e01b815260040161083a92919061257b565b602060405180830381865afa158015610857573d6000803e3d6000fd5b505050506040513d601f19601f8201168201806040525081019061087b91906125b9565b6108ba576040517f08c379a00000000000000000000000000000000000000000000000000000000081526004016108b190612632565b60405180910390fd5b600860008154809291906108cd90612652565b919050555060006008549050604051806080016040528082815260200186815260200185815260200184815250600960008381526020019081526020016000206000820151816000015560208201518160010155604082015181600201556060820151816003015590505061094233826111cf565b61094c81836112c8565b5050505050565b6000600760009054906101000a900473ffffffffffffffffffffffffffffffffffffffff16905090565b60606001805461098c906124a2565b80601f01602080910402602001604051908101604052809291908181526020018280546109b8906124a2565b8015610a055780601f106109da57610100808354040283529160200191610a05565b820191906000526020600020905b8154815290600101906020018083116109e857829003601f168201915b5050505050905090565b610a21610a1a610e4e565b8383611324565b5050565b60096020528060005260406000206000915090508060000154908060010154908060020154908060030154905084565b610a60848484610548565b610a74610a6b610e4e565b85858585611493565b50505050565b6060610a8582610d89565b506000600660008481526020019081526020016000208054610aa6906124a2565b80601f0160208091040260200160405190810160405280929190818152602001828054610ad2906124a2565b8015610b1f5780601f10610af457610100808354040283529160200191610b1f565b820191906000526020600020905b815481529060010190602001808311610b0257829003601f168201915b505050505090506000610b30611644565b90506000815103610b45578192505050610b88565b600082511115610b7a578082604051602001610b629291906126d6565b60405160208183030381529060405292505050610b88565b610b838461165b565b925050505b919050565b6000600560008473ffffffffffffffffffffffffffffffffffffffff1673ffffffffffffffffffffffffffffffffffffffff16815260200190815260200160002060008373ffffffffffffffffffffffffffffffffffffffff1673ffffffffffffffffffffffffffffffffffffffff16815260200190815260200160002060009054906101000a900460ff16905092915050565b610c29611082565b600073ffffffffffffffffffffffffffffffffffffffff168173ffffffffffffffffffffffffffffffffffffffff1603610c9b5760006040517f1e4fbdf7000000000000000000000000000000000000000000000000000000008152600401610c929190611efb565b60405180910390fd5b610ca481611109565b50565b60007f80ac58cd000000000000000000000000000000000000000000000000000000007bffffffffffffffffffffffffffffffffffffffffffffffffffffffff1916827bffffffffffffffffffffffffffffffffffffffffffffffffffffffff19161480610d7257507f5b5e139f000000000000000000000000000000000000000000000000000000007bffffffffffffffffffffffffffffffffffffffffffffffffffffffff1916827bffffffffffffffffffffffffffffffffffffffffffffffffffffffff1916145b80610d825750610d81826116c4565b5b9050919050565b600080610d958361172e565b9050600073ffffffffffffffffffffffffffffffffffffffff168173ffffffffffffffffffffffffffffffffffffffff1603610e0857826040517f7e273289000000000000000000000000000000000000000000000000000000008152600401610dff919061205e565b60405180910390fd5b80915050919050565b60006004600083815260200190815260200160002060009054906101000a900473ffffffffffffffffffffffffffffffffffffffff169050919050565b600033905090565b610e63838383600161176b565b505050565b600080610e748461172e565b9050600073ffffffffffffffffffffffffffffffffffffffff168373ffffffffffffffffffffffffffffffffffffffff1614610eb657610eb5818486611930565b5b600073ffffffffffffffffffffffffffffffffffffffff168173ffffffffffffffffffffffffffffffffffffffff1614610f4757610ef860008560008061176b565b6001600360008373ffffffffffffffffffffffffffffffffffffffff1673ffffffffffffffffffffffffffffffffffffffff168152602001908152602001600020600082825403925050819055505b600073ffffffffffffffffffffffffffffffffffffffff168573ffffffffffffffffffffffffffffffffffffffff1614610fca576001600360008773ffffffffffffffffffffffffffffffffffffffff1673ffffffffffffffffffffffffffffffffffffffff168152602001908152602001600020600082825401925050819055505b846002600086815260200190815260200160002060006101000a81548173ffffffffffffffffffffffffffffffffffffffff021916908373ffffffffffffffffffffffffffffffffffffffff160217905550838573ffffffffffffffffffffffffffffffffffffffff168273ffffffffffffffffffffffffffffffffffffffff167fddf252ad1be2c89b69c2b068fc378daa952ba7f163c4a11628f55a4df523b3ef60405160405180910390a4809150509392505050565b61108a610e4e565b73ffffffffffffffffffffffffffffffffffffffff166110a8610953565b73ffffffffffffffffffffffffffffffffffffffff1614611107576110cb610e4e565b6040517f118cdaa70000000000000000000000000000000000000000000000000000000081526004016110fe9190611efb565b60405180910390fd5b565b6000600760009054906101000a900473ffffffffffffffffffffffffffffffffffffffff16905081600760006101000a81548173ffffffffffffffffffffffffffffffffffffffff021916908373ffffffffffffffffffffffffffffffffffffffff1602179055508173ffffffffffffffffffffffffffffffffffffffff168173ffffffffffffffffffffffffffffffffffffffff167f8be0079c531659141344cd1fd0a4f28419497f9722a3daafe3b4186f6b6457e060405160405180910390a35050565b600073ffffffffffffffffffffffffffffffffffffffff168273ffffffffffffffffffffffffffffffffffffffff16036112415760006040517f64a0ae920000000000000000000000000000000000000000000000000000000081526004016112389190611efb565b60405180910390fd5b600061124f83836000610e68565b9050600073ffffffffffffffffffffffffffffffffffffffff168173ffffffffffffffffffffffffffffffffffffffff16146112c35760006040517f73c6ac6e0000000000000000000000000000000000000000000000000000000081526004016112ba9190611efb565b60405180910390fd5b505050565b806006600084815260200190815260200160002090816112e8919061289c565b507ff8e1a15aba9398e019f0b49df1a4fde98ee17ae345cb5f6b5e2c27f5033e8ce782604051611318919061205e565b60405180910390a15050565b600073ffffffffffffffffffffffffffffffffffffffff168273ffffffffffffffffffffffffffffffffffffffff160361139557816040517f5b08ba1800000000000000000000000000000000000000000000000000000000815260040161138c9190611efb565b60405180910390fd5b80600560008573ffffffffffffffffffffffffffffffffffffffff1673ffffffffffffffffffffffffffffffffffffffff16815260200190815260200160002060008473ffffffffffffffffffffffffffffffffffffffff1673ffffffffffffffffffffffffffffffffffffffff16815260200190815260200160002060006101000a81548160ff0219169083151502179055508173ffffffffffffffffffffffffffffffffffffffff168373ffffffffffffffffffffffffffffffffffffffff167f17307eab39ab6107e8899845ad3d59bd9653f200f220920489ca2b5937696c31836040516114869190611d8a565b60405180910390a3505050565b60008373ffffffffffffffffffffffffffffffffffffffff163b111561163d578273ffffffffffffffffffffffffffffffffffffffff1663150b7a02868685856040518563ffffffff1660e01b81526004016114f294939291906129c3565b6020604051808303816000875af192505050801561152e57506040513d601f19601f8201168201806040525081019061152b9190612a24565b60015b6115b2573d806000811461155e576040519150601f19603f3d011682016040523d82523d6000602084013e611563565b606091505b5060008151036115aa57836040517f64a0ae920000000000000000000000000000000000000000000000000000000081526004016115a19190611efb565b60405180910390fd5b805181602001fd5b63150b7a0260e01b7bffffffffffffffffffffffffffffffffffffffffffffffffffffffff1916817bffffffffffffffffffffffffffffffffffffffffffffffffffffffff19161461163b57836040517f64a0ae920000000000000000000000000000000000000000000000000000000081526004016116329190611efb565b60405180910390fd5b505b5050505050565b606060405180602001604052806000815250905090565b606061166682610d89565b506000611671611644565b9050600081511161169157604051806020016040528060008152506116bc565b8061169b846119f4565b6040516020016116ac9291906126d6565b6040516020818303038152906040525b915050919050565b60007f01ffc9a7000000000000000000000000000000000000000000000000000000007bffffffffffffffffffffffffffffffffffffffffffffffffffffffff1916827bffffffffffffffffffffffffffffffffffffffffffffffffffffffff1916149050919050565b60006002600083815260200190815260200160002060009054906101000a900473ffffffffffffffffffffffffffffffffffffffff169050919050565b80806117a45750600073ffffffffffffffffffffffffffffffffffffffff168273ffffffffffffffffffffffffffffffffffffffff1614155b156118d85760006117b484610d89565b9050600073ffffffffffffffffffffffffffffffffffffffff168373ffffffffffffffffffffffffffffffffffffffff161415801561181f57508273ffffffffffffffffffffffffffffffffffffffff168173ffffffffffffffffffffffffffffffffffffffff1614155b801561183257506118308184610b8d565b155b1561187457826040517fa9fbf51f00000000000000000000000000000000000000000000000000000000815260040161186b9190611efb565b60405180910390fd5b81156118d657838573ffffffffffffffffffffffffffffffffffffffff168273ffffffffffffffffffffffffffffffffffffffff167f8c5be1e5ebec7d5bd14f71427d1e84f3dd0314c0f7b2291e5b200ac8c7c3b92560405160405180910390a45b505b836004600085815260200190815260200160002060006101000a81548173ffffffffffffffffffffffffffffffffffffffff021916908373ffffffffffffffffffffffffffffffffffffffff16021790555050505050565b61193b838383611ac2565b6119ef57600073ffffffffffffffffffffffffffffffffffffffff168373ffffffffffffffffffffffffffffffffffffffff16036119b057806040517f7e2732890000000000000000000000000000000000000000000000000000000081526004016119a7919061205e565b60405180910390fd5b81816040517f177e802f0000000000000000000000000000000000000000000000000000000081526004016119e6929190612a51565b60405180910390fd5b505050565b606060006001611a0384611b83565b01905060008167ffffffffffffffff811115611a2257611a216120b0565b5b6040519080825280601f01601f191660200182016040528015611a545781602001600182028036833780820191505090505b509050600082602001820190505b600115611ab7578080600190039150507f3031323334353637383961626364656600000000000000000000000000000000600a86061a8153600a8581611aab57611aaa612a7a565b5b04945060008503611a62575b819350505050919050565b60008073ffffffffffffffffffffffffffffffffffffffff168373ffffffffffffffffffffffffffffffffffffffff1614158015611b7a57508273ffffffffffffffffffffffffffffffffffffffff168473ffffffffffffffffffffffffffffffffffffffff161480611b3b5750611b3a8484610b8d565b5b80611b7957508273ffffffffffffffffffffffffffffffffffffffff16611b6183610e11565b73ffffffffffffffffffffffffffffffffffffffff16145b5b90509392505050565b600080600090507a184f03e93ff9f4daa797ed6e38ed64bf6a1f0100000000000000008310611be1577a184f03e93ff9f4daa797ed6e38ed64bf6a1f0100000000000000008381611bd757611bd6612a7a565b5b0492506040810190505b6d04ee2d6d415b85acef81000000008310611c1e576d04ee2d6d415b85acef81000000008381611c1457611c13612a7a565b5b0492506020810190505b662386f26fc100008310611c4d57662386f26fc100008381611c4357611c42612a7a565b5b0492506010810190505b6305f5e1008310611c76576305f5e1008381611c6c57611c6b612a7a565b5b0492506008810190505b6127108310611c9b576127108381611c9157611c90612a7a565b5b0492506004810190505b60648310611cbe5760648381611cb457611cb3612a7a565b5b0492506002810190505b600a8310611ccd576001810190505b80915050919050565b6000604051905090565b600080fd5b600080fd5b60007fffffffff0000000000000000000000000000000000000000000000000000000082169050919050565b611d1f81611cea565b8114611d2a57600080fd5b50565b600081359050611d3c81611d16565b92915050565b600060208284031215611d5857611d57611ce0565b5b6000611d6684828501611d2d565b91505092915050565b60008115159050919050565b611d8481611d6f565b82525050565b6000602082019050611d9f6000830184611d7b565b92915050565b600081519050919050565b600082825260208201905092915050565b60005b83811015611ddf578082015181840152602081019050611dc4565b60008484015250505050565b6000601f19601f8301169050919050565b6000611e0782611da5565b611e118185611db0565b9350611e21818560208601611dc1565b611e2a81611deb565b840191505092915050565b60006020820190508181036000830152611e4f8184611dfc565b905092915050565b6000819050919050565b611e6a81611e57565b8114611e7557600080fd5b50565b600081359050611e8781611e61565b92915050565b600060208284031215611ea357611ea2611ce0565b5b6000611eb184828501611e78565b91505092915050565b600073ffffffffffffffffffffffffffffffffffffffff82169050919050565b6000611ee582611eba565b9050919050565b611ef581611eda565b82525050565b6000602082019050611f106000830184611eec565b92915050565b611f1f81611eda565b8114611f2a57600080fd5b50565b600081359050611f3c81611f16565b92915050565b60008060408385031215611f5957611f58611ce0565b5b6000611f6785828601611f2d565b9250506020611f7885828601611e78565b9150509250929050565b600080600060608486031215611f9b57611f9a611ce0565b5b6000611fa986828701611f2d565b9350506020611fba86828701611f2d565b9250506040611fcb86828701611e78565b9150509250925092565b6000819050919050565b6000611ffa611ff5611ff084611eba565b611fd5565b611eba565b9050919050565b600061200c82611fdf565b9050919050565b600061201e82612001565b9050919050565b61202e81612013565b82525050565b60006020820190506120496000830184612025565b92915050565b61205881611e57565b82525050565b6000602082019050612073600083018461204f565b92915050565b60006020828403121561208f5761208e611ce0565b5b600061209d84828501611f2d565b91505092915050565b600080fd5b600080fd5b7f4e487b7100000000000000000000000000000000000000000000000000000000600052604160045260246000fd5b6120e882611deb565b810181811067ffffffffffffffff82111715612107576121066120b0565b5b80604052505050565b600061211a611cd6565b905061212682826120df565b919050565b600067ffffffffffffffff821115612146576121456120b0565b5b61214f82611deb565b9050602081019050919050565b82818337600083830152505050565b600061217e6121798461212b565b612110565b90508281526020810184848401111561219a576121996120ab565b5b6121a584828561215c565b509392505050565b600082601f8301126121c2576121c16120a6565b5b81356121d284826020860161216b565b91505092915050565b600080600080608085870312156121f5576121f4611ce0565b5b600061220387828801611e78565b945050602061221487828801611e78565b935050604061222587828801611e78565b925050606085013567ffffffffffffffff81111561224657612245611ce5565b5b612252878288016121ad565b91505092959194509250565b61226781611d6f565b811461227257600080fd5b50565b6000813590506122848161225e565b92915050565b600080604083850312156122a1576122a0611ce0565b5b60006122af85828601611f2d565b92505060206122c085828601612275565b9150509250929050565b60006080820190506122df600083018761204f565b6122ec602083018661204f565b6122f9604083018561204f565b612306606083018461204f565b95945050505050565b600067ffffffffffffffff82111561232a576123296120b0565b5b61233382611deb565b9050602081019050919050565b600061235361234e8461230f565b612110565b90508281526020810184848401111561236f5761236e6120ab565b5b61237a84828561215c565b509392505050565b600082601f830112612397576123966120a6565b5b81356123a7848260208601612340565b91505092915050565b600080600080608085870312156123ca576123c9611ce0565b5b60006123d887828801611f2d565b94505060206123e987828801611f2d565b93505060406123fa87828801611e78565b925050606085013567ffffffffffffffff81111561241b5761241a611ce5565b5b61242787828801612382565b91505092959194509250565b6000806040838503121561244a57612449611ce0565b5b600061245885828601611f2d565b925050602061246985828601611f2d565b9150509250929050565b7f4e487b7100000000000000000000000000000000000000000000000000000000600052602260045260246000fd5b600060028204905060018216806124ba57607f821691505b6020821081036124cd576124cc612473565b5b50919050565b60006060820190506124e86000830186611eec565b6124f5602083018561204f565b6125026040830184611eec565b949350505050565b7f4e487b7100000000000000000000000000000000000000000000000000000000600052601160045260246000fd5b600061254482611e57565b915061254f83611e57565b925082820261255d81611e57565b915082820484148315176125745761257361250a565b5b5092915050565b6000604082019050612590600083018561204f565b61259d6020830184611eec565b9392505050565b6000815190506125b38161225e565b92915050565b6000602082840312156125cf576125ce611ce0565b5b60006125dd848285016125a4565b91505092915050565b7f4f6e6c79206275696c64696e67206f776e65722063616e206d696e7400000000600082015250565b600061261c601c83611db0565b9150612627826125e6565b602082019050919050565b6000602082019050818103600083015261264b8161260f565b9050919050565b600061265d82611e57565b91507fffffffffffffffffffffffffffffffffffffffffffffffffffffffffffffffff820361268f5761268e61250a565b5b600182019050919050565b600081905092915050565b60006126b082611da5565b6126ba818561269a565b93506126ca818560208601611dc1565b80840191505092915050565b60006126e282856126a5565b91506126ee82846126a5565b91508190509392505050565b60008190508160005260206000209050919050565b60006020601f8301049050919050565b600082821b905092915050565b60006008830261275c7fffffffffffffffffffffffffffffffffffffffffffffffffffffffffffffffff8261271f565b612766868361271f565b95508019841693508086168417925050509392505050565b600061279961279461278f84611e57565b611fd5565b611e57565b9050919050565b6000819050919050565b6127b38361277e565b6127c76127bf826127a0565b84845461272c565b825550505050565b600090565b6127dc6127cf565b6127e78184846127aa565b505050565b5b8181101561280b576128006000826127d4565b6001810190506127ed565b5050565b601f82111561285057612821816126fa565b61282a8461270f565b81016020851015612839578190505b61284d6128458561270f565b8301826127ec565b50505b505050565b600082821c905092915050565b600061287360001984600802612855565b1980831691505092915050565b600061288c8383612862565b9150826002028217905092915050565b6128a582611da5565b67ffffffffffffffff8111156128be576128bd6120b0565b5b6128c882546124a2565b6128d382828561280f565b600060209050601f83116001811461290657600084156128f4578287015190505b6128fe8582612880565b865550612966565b601f198416612914866126fa565b60005b8281101561293c57848901518255600182019150602085019450602081019050612917565b868310156129595784890151612955601f891682612862565b8355505b6001600288020188555050505b505050505050565b600081519050919050565b600082825260208201905092915050565b60006129958261296e565b61299f8185612979565b93506129af818560208601611dc1565b6129b881611deb565b840191505092915050565b60006080820190506129d86000830187611eec565b6129e56020830186611eec565b6129f2604083018561204f565b8181036060830152612a04818461298a565b905095945050505050565b600081519050612a1e81611d16565b92915050565b600060208284031215612a3a57612a39611ce0565b5b6000612a4884828501612a0f565b91505092915050565b6000604082019050612a666000830185611eec565b612a73602083018461204f565b9392505050565b7f4e487b7100000000000000000000000000000000000000000000000000000000600052601260045260246000fdfea264697066735822122069c4dd652d1a4f4a3fdd2a9d3e06337ed42a7ca79c7456a39a4551006454e26a64736f6c634300081c0033",
  "linkReferences": {},
  "deployedLinkReferences": {}
}