{
  "_format": "hh-sol-artifact-1",
  "contractName": "ApartmentBuyout",
  "sourceName": "contracts/ApartmentBuyout.sol",
  "abi": [
    {
      "inputs": [
        {
          "internalType": "address",
          "name": "_aptNFT",
          "type": "address"
        },
        {
          "internalType": "address",
          "name": "_sqmToken",
          "type": "address"
        }
      ],
      "stateMutability": "nonpayable",
      "type": "constructor"
    },
    {
      "inputs": [],
      "name": "apartmentNFT",
      "outputs": [
        {
          "internalType": "contract IERC721",
          "name": "",
          "type": "address"
        }
      ],
      "stateMutability": "view",
      "type": "function"
    },
    {
      "inputs": [],
      "name": "approvalThreshold",
      "outputs": [
        {
          "internalType": "uint256",
          "name": "",
          "type": "uint256"
        }
      ],
      "stateMutability": "view",
      "type": "function"
    },
    {
      "inputs": [
        {
          "internalType": "uint256",
          "name": "apartmentId",
          "type": "uint256"
        }
      ],
      "name": "approveBuyout",
      "outputs": [],
      "stateMutability": "nonpayable",
      "type": "function"
    },
    {
      "inputs": [
        {
          "internalType": "uint256",
          "name": "apartmentId",
          "type": "uint256"
        }
      ],
      "name": "claim",
      "outputs": [],
      "stateMutability": "nonpayable",
      "type": "function"
    },
    {
      "inputs": [],
      "name": "squareMeterToken",
      "outputs": [
        {
          "internalType": "contract IERC1155",
          "name": "",
          "type": "address"
        }
      ],
      "stateMutability": "view",
      "type": "function"
    },
    {
      "inputs": [
        {
          "internalType": "uint256",
          "name": "apartmentId",
          "type": "uint256"
        }
      ],
      "name": "startBuyout",
      "outputs": [],
      "stateMutability": "payable",
      "type": "function"
    }
  ],
  "bytecode": "0x608060405234801561001057600080fd5b506040516114453803806114458339818101604052810190610032919061011e565b81600160006101000a81548173ffffffffffffffffffffffffffffffffffffffff021916908373ffffffffffffffffffffffffffffffffffffffff16021790555080600260006101000a81548173ffffffffffffffffffffffffffffffffffffffff021916908373ffffffffffffffffffffffffffffffffffffffff160217905550505061015e565b600080fd5b600073ffffffffffffffffffffffffffffffffffffffff82169050919050565b60006100eb826100c0565b9050919050565b6100fb816100e0565b811461010657600080fd5b50565b600081519050610118816100f2565b92915050565b60008060408385031215610135576101346100bb565b5b600061014385828601610109565b925050602061015485828601610109565b9150509250929050565b6112d88061016d6000396000f3fe6080604052600436106100555760003560e01c80631eda7c001461005a578063379607f5146100835780635d448ac8146100ac5780637d0eef61146100d7578063be35a7d114610102578063f7678a8c1461011e575b600080fd5b34801561006657600080fd5b50610081600480360381019061007c9190610b0b565b610149565b005b34801561008f57600080fd5b506100aa60048036038101906100a59190610b0b565b6105a9565b005b3480156100b857600080fd5b506100c161084d565b6040516100ce9190610bb7565b60405180910390f35b3480156100e357600080fd5b506100ec610873565b6040516100f99190610be1565b60405180910390f35b61011c60048036038101906101179190610b0b565b610879565b005b34801561012a57600080fd5b50610133610aaa565b6040516101409190610c1d565b60405180910390f35b600080600083815260200190815260200160002090508060030160019054906101000a900460ff166101b0576040517f08c379a00000000000000000000000000000000000000000000000000000000081526004016101a790610c95565b60405180910390fd5b8060050160003373ffffffffffffffffffffffffffffffffffffffff1673ffffffffffffffffffffffffffffffffffffffff16815260200190815260200160002060009054906101000a900460ff161561023f576040517f08c379a000000000000000000000000000000000000000000000000000000000815260040161023690610d01565b60405180910390fd5b8060030160009054906101000a900460ff1615610291576040517f08c379a000000000000000000000000000000000000000000000000000000000815260040161028890610d6d565b60405180910390fd5b6000600260009054906101000a900473ffffffffffffffffffffffffffffffffffffffff1673ffffffffffffffffffffffffffffffffffffffff1662fdd58e33856040518363ffffffff1660e01b81526004016102ef929190610dae565b602060405180830381865afa15801561030c573d6000803e3d6000fd5b505050506040513d601f19601f820116820180604052508101906103309190610dec565b905060008111610375576040517f08c379a000000000000000000000000000000000000000000000000000000000815260040161036c90610e65565b60405180910390fd5b60018260050160003373ffffffffffffffffffffffffffffffffffffffff1673ffffffffffffffffffffffffffffffffffffffff16815260200190815260200160002060006101000a81548160ff021916908315150217905550808260020160008282546103e39190610eb4565b92505081905550611b58826004015461271084600201546104049190610ee8565b61040e9190610f59565b106105a4576000600160009054906101000a900473ffffffffffffffffffffffffffffffffffffffff1673ffffffffffffffffffffffffffffffffffffffff16636352211e856040518263ffffffff1660e01b81526004016104709190610be1565b602060405180830381865afa15801561048d573d6000803e3d6000fd5b505050506040513d601f19601f820116820180604052508101906104b19190610fb6565b9050600160009054906101000a900473ffffffffffffffffffffffffffffffffffffffff1673ffffffffffffffffffffffffffffffffffffffff166323b872dd828560000160009054906101000a900473ffffffffffffffffffffffffffffffffffffffff16876040518463ffffffff1660e01b815260040161053693929190610fe3565b600060405180830381600087803b15801561055057600080fd5b505af1158015610564573d6000803e3d6000fd5b5050505060018360030160006101000a81548160ff02191690831515021790555060008360030160016101000a81548160ff021916908315150217905550505b505050565b600080600083815260200190815260200160002090508060030160009054906101000a900460ff16610610576040517f08c379a000000000000000000000000000000000000000000000000000000000815260040161060790611066565b60405180910390fd5b8060060160003373ffffffffffffffffffffffffffffffffffffffff1673ffffffffffffffffffffffffffffffffffffffff16815260200190815260200160002060009054906101000a900460ff161561069f576040517f08c379a0000000000000000000000000000000000000000000000000000000008152600401610696906110d2565b60405180910390fd5b6000600260009054906101000a900473ffffffffffffffffffffffffffffffffffffffff1673ffffffffffffffffffffffffffffffffffffffff1662fdd58e33856040518363ffffffff1660e01b81526004016106fd929190610dae565b602060405180830381865afa15801561071a573d6000803e3d6000fd5b505050506040513d601f19601f8201168201806040525081019061073e9190610dec565b905060008111610783576040517f08c379a000000000000000000000000000000000000000000000000000000000815260040161077a9061113e565b60405180910390fd5b6000826004015482846001015461079a9190610ee8565b6107a49190610f59565b905060018360060160003373ffffffffffffffffffffffffffffffffffffffff1673ffffffffffffffffffffffffffffffffffffffff16815260200190815260200160002060006101000a81548160ff0219169083151502179055503373ffffffffffffffffffffffffffffffffffffffff166108fc829081150290604051600060405180830381858888f19350505050158015610846573d6000803e3d6000fd5b5050505050565b600160009054906101000a900473ffffffffffffffffffffffffffffffffffffffff1681565b611b5881565b60008082815260200190815260200160002060030160019054906101000a900460ff16156108dc576040517f08c379a00000000000000000000000000000000000000000000000000000000081526004016108d3906111aa565b60405180910390fd5b6000341161091f576040517f08c379a000000000000000000000000000000000000000000000000000000000815260040161091690611216565b60405180910390fd5b60008060008381526020019081526020016000209050338160000160006101000a81548173ffffffffffffffffffffffffffffffffffffffff021916908373ffffffffffffffffffffffffffffffffffffffff16021790555034816001018190555060018160030160016101000a81548160ff02191690831515021790555060008160030160006101000a81548160ff021916908315150217905550600260009054906101000a900473ffffffffffffffffffffffffffffffffffffffff1673ffffffffffffffffffffffffffffffffffffffff1663bd85b039836040518263ffffffff1660e01b8152600401610a169190610be1565b602060405180830381865afa158015610a33573d6000803e3d6000fd5b505050506040513d601f19601f82011682018060405250810190610a579190610dec565b81600401819055506000816004015411610aa6576040517f08c379a0000000000000000000000000000000000000000000000000000000008152600401610a9d90611282565b60405180910390fd5b5050565b600260009054906101000a900473ffffffffffffffffffffffffffffffffffffffff1681565b600080fd5b6000819050919050565b610ae881610ad5565b8114610af357600080fd5b50565b600081359050610b0581610adf565b92915050565b600060208284031215610b2157610b20610ad0565b5b6000610b2f84828501610af6565b91505092915050565b600073ffffffffffffffffffffffffffffffffffffffff82169050919050565b6000819050919050565b6000610b7d610b78610b7384610b38565b610b58565b610b38565b9050919050565b6000610b8f82610b62565b9050919050565b6000610ba182610b84565b9050919050565b610bb181610b96565b82525050565b6000602082019050610bcc6000830184610ba8565b92915050565b610bdb81610ad5565b82525050565b6000602082019050610bf66000830184610bd2565b92915050565b6000610c0782610b84565b9050919050565b610c1781610bfc565b82525050565b6000602082019050610c326000830184610c0e565b92915050565b600082825260208201905092915050565b7f4e6f20616374697665206275796f757400000000000000000000000000000000600082015250565b6000610c7f601083610c38565b9150610c8a82610c49565b602082019050919050565b60006020820190508181036000830152610cae81610c72565b9050919050565b7f416c726561647920766f74656400000000000000000000000000000000000000600082015250565b6000610ceb600d83610c38565b9150610cf682610cb5565b602082019050919050565b60006020820190508181036000830152610d1a81610cde565b9050919050565b7f4275796f757420616c726561647920636f6d706c657465640000000000000000600082015250565b6000610d57601883610c38565b9150610d6282610d21565b602082019050919050565b60006020820190508181036000830152610d8681610d4a565b9050919050565b6000610d9882610b38565b9050919050565b610da881610d8d565b82525050565b6000604082019050610dc36000830185610d9f565b610dd06020830184610bd2565b9392505050565b600081519050610de681610adf565b92915050565b600060208284031215610e0257610e01610ad0565b5b6000610e1084828501610dd7565b91505092915050565b7f4d757374206f776e20737175617265206d657465727320746f20766f74650000600082015250565b6000610e4f601e83610c38565b9150610e5a82610e19565b602082019050919050565b60006020820190508181036000830152610e7e81610e42565b9050919050565b7f4e487b7100000000000000000000000000000000000000000000000000000000600052601160045260246000fd5b6000610ebf82610ad5565b9150610eca83610ad5565b9250828201905080821115610ee257610ee1610e85565b5b92915050565b6000610ef382610ad5565b9150610efe83610ad5565b9250828202610f0c81610ad5565b91508282048414831517610f2357610f22610e85565b5b5092915050565b7f4e487b7100000000000000000000000000000000000000000000000000000000600052601260045260246000fd5b6000610f6482610ad5565b9150610f6f83610ad5565b925082610f7f57610f7e610f2a565b5b828204905092915050565b610f9381610d8d565b8114610f9e57600080fd5b50565b600081519050610fb081610f8a565b92915050565b600060208284031215610fcc57610fcb610ad0565b5b6000610fda84828501610fa1565b91505092915050565b6000606082019050610ff86000830186610d9f565b6110056020830185610d9f565b6110126040830184610bd2565b949350505050565b7f4275796f7574206e6f7420636f6d706c65746564000000000000000000000000600082015250565b6000611050601483610c38565b915061105b8261101a565b602082019050919050565b6000602082019050818103600083015261107f81611043565b9050919050565b7f416c726561647920636c61696d65640000000000000000000000000000000000600082015250565b60006110bc600f83610c38565b91506110c782611086565b602082019050919050565b600060208201905081810360008301526110eb816110af565b9050919050565b7f4e6f74206120746f6b656e20686f6c6465720000000000000000000000000000600082015250565b6000611128601283610c38565b9150611133826110f2565b602082019050919050565b600060208201905081810360008301526111578161111b565b9050919050565b7f4275796f757420616c726561647920696e2070726f6772657373000000000000600082015250565b6000611194601a83610c38565b915061119f8261115e565b602082019050919050565b600060208201905081810360008301526111c381611187565b9050919050565b7f4f66666572206d75737420696e636c7564652045544800000000000000000000600082015250565b6000611200601683610c38565b915061120b826111ca565b602082019050919050565b6000602082019050818103600083015261122f816111f3565b9050919050565b7f496e76616c696420746f74616c20737570706c79000000000000000000000000600082015250565b600061126c601483610c38565b915061127782611236565b602082019050919050565b6000602082019050818103600083015261129b8161125f565b905091905056fea26469706673582212203afaba65ddc24069ff3523471892d99b56c22aedef260e48f2caefb3fd90ddb864736f6c634300081c0033",
  "linkReferences": {},
  "deployedLinkReferences": {}
}