{
  "_format": "hh-sol-artifact-1",
  "contractName": "BuildingRegistry",
  "sourceName": "contracts/BuildingRegistry.sol",
  "abi": [
    {
      "anonymous": false,
      "inputs": [
        {
          "indexed": true,
          "internalType": "uint256",
          "name": "id",
          "type": "uint256"
        },
        {
          "indexed": true,
          "internalType": "address",
          "name": "owner",
          "type": "address"
        },
        {
          "indexed": false,
          "internalType": "string",
          "name": "metadataURI",
          "type": "string"
        }
      ],
      "name": "BuildingCreated",
      "type": "event"
    },
    {
      "inputs": [],
      "name": "buildingCount",
      "outputs": [
        {
          "internalType": "uint256",
          "name": "",
          "type": "uint256"
        }
      ],
      "stateMutability": "view",
      "type": "function"
    },
    {
      "inputs": [
        {
          "internalType": "uint256",
          "name": "",
          "type": "uint256"
        }
      ],
      "name": "buildings",
      "outputs": [
        {
          "internalType": "uint256",
          "name": "id",
          "type": "uint256"
        },
        {
          "internalType": "address",
          "name": "owner",
          "type": "address"
        },
        {
          "internalType": "string",
          "name": "metadataURI",
          "type": "string"
        }
      ],
      "stateMutability": "view",
      "type": "function"
    },
    {
      "inputs": [
        {
          "internalType": "string",
          "name": "metadataURI",
          "type": "string"
        }
      ],
      "name": "createBuilding",
      "outputs": [],
      "stateMutability": "nonpayable",
      "type": "function"
    },
    {
      "inputs": [
        {
          "internalType": "uint256",
          "name": "buildingId",
          "type": "uint256"
        },
        {
          "internalType": "address",
          "name": "user",
          "type": "address"
        }
      ],
      "name": "isOwner",
      "outputs": [
        {
          "internalType": "bool",
          "name": "",
          "type": "bool"
        }
      ],
      "stateMutability": "view",
      "type": "function"
    }
  ],
  "bytecode": "0x6080604052348015600f57600080fd5b50610acd8061001f6000396000f3fe608060405234801561001057600080fd5b506004361061004c5760003560e01c8063435aa9ca146100515780634c96a0621461006f5780635a5d096c146100a1578063b2cbe163146100d1575b600080fd5b6100596100ed565b6040516100669190610369565b60405180910390f35b610089600480360381019061008491906103c4565b6100f3565b604051610098939291906104c2565b60405180910390f35b6100bb60048036038101906100b6919061052c565b6101c5565b6040516100c89190610587565b60405180910390f35b6100eb60048036038101906100e691906106d7565b610234565b005b60005481565b60016020528060005260406000206000915090508060000154908060010160009054906101000a900473ffffffffffffffffffffffffffffffffffffffff16908060020180546101429061074f565b80601f016020809104026020016040519081016040528092919081815260200182805461016e9061074f565b80156101bb5780601f10610190576101008083540402835291602001916101bb565b820191906000526020600020905b81548152906001019060200180831161019e57829003601f168201915b5050505050905083565b60008173ffffffffffffffffffffffffffffffffffffffff166001600085815260200190815260200160002060010160009054906101000a900473ffffffffffffffffffffffffffffffffffffffff1673ffffffffffffffffffffffffffffffffffffffff1614905092915050565b600080815480929190610246906107af565b9190505550604051806060016040528060005481526020013373ffffffffffffffffffffffffffffffffffffffff1681526020018281525060016000805481526020019081526020016000206000820151816000015560208201518160010160006101000a81548173ffffffffffffffffffffffffffffffffffffffff021916908373ffffffffffffffffffffffffffffffffffffffff16021790555060408201518160020190816102f891906109a3565b509050503373ffffffffffffffffffffffffffffffffffffffff166000547f8195fd5a4c16df4a8b20b307540c1cf8f58f18362f07d502b2379e857296b82c836040516103459190610a75565b60405180910390a350565b6000819050919050565b61036381610350565b82525050565b600060208201905061037e600083018461035a565b92915050565b6000604051905090565b600080fd5b600080fd5b6103a181610350565b81146103ac57600080fd5b50565b6000813590506103be81610398565b92915050565b6000602082840312156103da576103d961038e565b5b60006103e8848285016103af565b91505092915050565b600073ffffffffffffffffffffffffffffffffffffffff82169050919050565b600061041c826103f1565b9050919050565b61042c81610411565b82525050565b600081519050919050565b600082825260208201905092915050565b60005b8381101561046c578082015181840152602081019050610451565b60008484015250505050565b6000601f19601f8301169050919050565b600061049482610432565b61049e818561043d565b93506104ae81856020860161044e565b6104b781610478565b840191505092915050565b60006060820190506104d7600083018661035a565b6104e46020830185610423565b81810360408301526104f68184610489565b9050949350505050565b61050981610411565b811461051457600080fd5b50565b60008135905061052681610500565b92915050565b600080604083850312156105435761054261038e565b5b6000610551858286016103af565b925050602061056285828601610517565b9150509250929050565b60008115159050919050565b6105818161056c565b82525050565b600060208201905061059c6000830184610578565b92915050565b600080fd5b600080fd5b7f4e487b7100000000000000000000000000000000000000000000000000000000600052604160045260246000fd5b6105e482610478565b810181811067ffffffffffffffff82111715610603576106026105ac565b5b80604052505050565b6000610616610384565b905061062282826105db565b919050565b600067ffffffffffffffff821115610642576106416105ac565b5b61064b82610478565b9050602081019050919050565b82818337600083830152505050565b600061067a61067584610627565b61060c565b905082815260208101848484011115610696576106956105a7565b5b6106a1848285610658565b509392505050565b600082601f8301126106be576106bd6105a2565b5b81356106ce848260208601610667565b91505092915050565b6000602082840312156106ed576106ec61038e565b5b600082013567ffffffffffffffff81111561070b5761070a610393565b5b610717848285016106a9565b91505092915050565b7f4e487b7100000000000000000000000000000000000000000000000000000000600052602260045260246000fd5b6000600282049050600182168061076757607f821691505b60208210810361077a57610779610720565b5b50919050565b7f4e487b7100000000000000000000000000000000000000000000000000000000600052601160045260246000fd5b60006107ba82610350565b91507fffffffffffffffffffffffffffffffffffffffffffffffffffffffffffffffff82036107ec576107eb610780565b5b600182019050919050565b60008190508160005260206000209050919050565b60006020601f8301049050919050565b600082821b905092915050565b6000600883026108597fffffffffffffffffffffffffffffffffffffffffffffffffffffffffffffffff8261081c565b610863868361081c565b95508019841693508086168417925050509392505050565b6000819050919050565b60006108a061089b61089684610350565b61087b565b610350565b9050919050565b6000819050919050565b6108ba83610885565b6108ce6108c6826108a7565b848454610829565b825550505050565b600090565b6108e36108d6565b6108ee8184846108b1565b505050565b5b81811015610912576109076000826108db565b6001810190506108f4565b5050565b601f82111561095757610928816107f7565b6109318461080c565b81016020851015610940578190505b61095461094c8561080c565b8301826108f3565b50505b505050565b600082821c905092915050565b600061097a6000198460080261095c565b1980831691505092915050565b60006109938383610969565b9150826002028217905092915050565b6109ac82610432565b67ffffffffffffffff8111156109c5576109c46105ac565b5b6109cf825461074f565b6109da828285610916565b600060209050601f831160018114610a0d57600084156109fb578287015190505b610a058582610987565b865550610a6d565b601f198416610a1b866107f7565b60005b82811015610a4357848901518255600182019150602085019450602081019050610a1e565b86831015610a605784890151610a5c601f891682610969565b8355505b6001600288020188555050505b505050505050565b60006020820190508181036000830152610a8f8184610489565b90509291505056fea26469706673582212204b991267b4bfa891c9130fbe586447623fb01204c378437679600fdd8a69abad64736f6c634300081c0033",
  "linkReferences": {},
  "deployedLinkReferences": {}
}